9999900000NON-METRO                                         203B S01940000498257063795007711250958350AK013ALASKA                    ALEUTIANS EAST         2024010102140002013
9999900000NON-METRO                                         203B H04500000545100069780008435001048300AK016ALASKA                    ALEUTIANS WEST         2021010104740002020
1126000000ANCHORAGE, AK                                     203B S04200000498257063795007711250958350AK020ALASKA                    ANCHORAGE MUNIC        2024010104200002023
9999900000NON-METRO                                         203B S01510000498257063795007711250958350AK050ALASKA                    BETHEL CENSUS A        2024010102080002015
9999900000NON-METRO                                         203B S03450000498257063795007711250958350AK060ALASKA                    BRISTOL BAY BOR        2024010103450002023
9999900000NON-METRO                                         203B S02530000498257063795007711250958350AK063ALASKA                    CHUGACH CENSUS         2024010103200002022
9999900000NON-METRO                                         203B S02530000498257063795007711250958350AK066ALASKA                    COPPER RIVER CE        2024010103200002022
9999900000NON-METRO                                         203B S02730000498257063795007711250958350AK068ALASKA                    DENALI BOROUGH         2024010102970002022
9999900000NON-METRO                                         203B S02090000498257063795007711250958350AK070ALASKA                    DILLINGHAM CENS        2024010102590002017
2182000000FAIRBANKS, AK                                     203B S03110000498257063795007711250958350AK090ALASKA                    FAIRBANKS NORTH        2024010103110002022
9999900000NON-METRO                                         203B S02820000498257063795007711250958350AK100ALASKA                    HAINES BOROUGH         2024010102820002023
9999900000NON-METRO                                         203B H03270000524400067130008114501008450AK105ALASKA                    HOONAH-ANGOON C        2023010104560002022
2794000000JUNEAU, AK                                        203B H04810000553150070815008559501063750AK110ALASKA                    JUNEAU CITY AND        2024010104810002023
9999900000NON-METRO                                         203B S02940000498257063795007711250958350AK122ALASKA                    KENAI PENINSULA        2024010102950002022
2854000000KETCHIKAN, AK                                     203B S03750000498257063795007711250958350AK130ALASKA                    KETCHIKAN GATEW        2024010104220002022
9999900000NON-METRO                                         203B H04500000517500066250008008000995200AK150ALASKA                    KODIAK ISLAND B        2024010104500002023
9999900000NON-METRO                                         203B S00980000498257063795007711250958350AK158ALASKA                    KUSILVAK CENSUS        2024010101610002013
9999900000NON-METRO                                         203B S01560000498257063795007711250958350AK164ALASKA                    LAKE AND PENINS        2024010101790002022
1126000000ANCHORAGE, AK                                     203B S04200000498257063795007711250958350AK170ALASKA                    MATANUSKA-SUSIT        2024010104200002023
9999900000NON-METRO                                         203B S03750000498257063795007711250958350AK180ALASKA                    NOME CENSUS ARE        2024010103830002020
