9999900000NON-METRO                                         203B S01940000498257063795007711250958350AK013ALASKA                    ALEUTIANS EAST         2024010102140002013
9999900000NON-METRO                                         203B H04500000545100069780008435001048300AK016ALASKA                    ALEUTIANS WEST         2021010104740002020
1126000000ANCHORAGE, AK                                     203B S04200000498257063795007711250958350AK020ALASKA                    ANCHORAGE MUNIC        2024010104200002023
9999900000NON-METRO                                         203B S01510000498257063795007711250958350AK050ALASKA                    BETHEL CENSUS A        2024010102080002015
9999900000NON-METRO                                         203B S03450000498257063795007711250958350AK060ALASKA                    BRISTOL BAY BOR        2024010103450002023
9999900000NON-METRO                                         203B S02530000498257063795007711250958350AK063ALASKA                    CHUGACH CENSUS         2024010103200002022
9999900000NON-METRO                                         203B S02530000498257063795007711250958350AK066ALASKA                    COPPER RIVER CE        2024010103200002022
9999900000NON-METRO                                         203B S02730000498257063795007711250958350AK068ALASKA                    DENALI BOROUGH         2024010102970002022
9999900000NON-METRO                                         203B S02090000498257063795007711250958350AK070ALASKA                    DILLINGHAM CENS        2024010102590002017
2182000000FAIRBANKS, AK                                     203B S03110000498257063795007711250958350AK090ALASKA                    FAIRBANKS NORTH        2024010103110002022
9999900000NON-METRO                                         203B S02820000498257063795007711250958350AK100ALASKA                    HAINES BOROUGH         2024010102820002023
9999900000NON-METRO                                         203B H03270000524400067130008114501008450AK105ALASKA                    HOONAH-ANGOON C        2023010104560002022
2794000000JUNEAU, AK                                        203B H04810000553150070815008559501063750AK110ALASKA                    JUNEAU CITY AND        2024010104810002023
9999900000NON-METRO                                         203B S02940000498257063795007711250958350AK122ALASKA                    KENAI PENINSULA        2024010102950002022
2854000000KETCHIKAN, AK                                     203B S03750000498257063795007711250958350AK130ALASKA                    KETCHIKAN GATEW        2024010104220002022
9999900000NON-METRO                                         203B H04500000517500066250008008000995200AK150ALASKA                    KODIAK ISLAND B        2024010104500002023
9999900000NON-METRO                                         203B S00980000498257063795007711250958350AK158ALASKA                    KUSILVAK CENSUS        2024010101610002013
9999900000NON-METRO                                         203B S01560000498257063795007711250958350AK164ALASKA                    LAKE AND PENINS        2024010101790002022
1126000000ANCHORAGE, AK                                     203B S04200000498257063795007711250958350AK170ALASKA                    MATANUSKA-SUSIT        2024010104200002023
9999900000NON-METRO                                         203B S03750000498257063795007711250958350AK180ALASKA                    NOME CENSUS ARE        2024010103830002020
9999900000NON-METRO                                         203B S02810000498257063795007711250958350AK185ALASKA                    NORTH SLOPE BOR        2024010102890002013
9999900000NON-METRO                                         203B S01760000498257063795007711250958350AK188ALASKA                    NORTHWEST ARCTI        2024010102040002016
9999900000NON-METRO                                         203B S03000000498257063795007711250958350AK195ALASKA                    PETERSBURG CENS        2024010103000002023
9999900000NON-METRO                                         203B S02580000498257063795007711250958350AK198ALASKA                    PRINCE OF WALES        2024010102580002023
9999900000NON-METRO                                         203B H04890000586500075080009075501127900AK220ALASKA                    SITKA CITY AND         2023010105100002022
9999900000NON-METRO                                         203B H03270000524400067130008114501008450AK230ALASKA                    SKAGWAY MUNICIP        2023010104560002022
9999900000NON-METRO                                         203B S02580000498257063795007711250958350AK240ALASKA                    SOUTHEAST FAIRB        2024010102580002023
9999900000NON-METRO                                         203B S03000000498257063795007711250958350AK275ALASKA                    WRANGELL CITY A        2024010103000002023
9999900000NON-METRO                                         203B S02470000498257063795007711250958350AK282ALASKA                    YAKUTAT CITY AN        2024010103660002013
9999900000NON-METRO                                         203B S01040000498257063795007711250958350AK290ALASKA                    YUKON-KOYUKUK C        2024010101170002015
3386000000MONTGOMERY, AL                                    203B S01910000498257063795007711250958350AL001ALABAMA                   AUTAUGA                2024010101910002023
1930000000DAPHNE-FAIRHOPE-FOLEY, AL                         203B S02950000498257063795007711250958350AL003ALABAMA                   BALDWIN                2024010102950002023
2164000000EUFAULA, AL-GA                                    203B S01280000498257063795007711250958350AL005ALABAMA                   BARBOUR                2024010101280002023
1382000000BIRMINGHAM-HOOVER, AL                             203B S02990000498257063795007711250958350AL007ALABAMA                   BIBB                   2024010102990002023
1382000000BIRMINGHAM-HOOVER, AL                             203B S02990000498257063795007711250958350AL009ALABAMA                   BLOUNT                 2024010102990002023
9999900000NON-METRO                                         203B S01040000498257063795007711250958350AL011ALABAMA                   BULLOCK                2024010101040002023
9999900000NON-METRO                                         203B S01340000498257063795007711250958350AL013ALABAMA                   BUTLER                 2024010101350002022
1150000000ANNISTON-OXFORD, AL                               203B S01200000498257063795007711250958350AL015ALABAMA                   CALHOUN                2024010101570002021
2930000000LAGRANGE, GA-AL                                   203B S01820000498257063795007711250958350AL017ALABAMA                   CHAMBERS               2024010101820002023
9999900000NON-METRO                                         203B S01300000498257063795007711250958350AL019ALABAMA                   CHEROKEE               2024010101410002020
1382000000BIRMINGHAM-HOOVER, AL                             203B S02990000498257063795007711250958350AL021ALABAMA                   CHILTON                2024010102990002023
9999900000NON-METRO                                         203B S01140000498257063795007711250958350AL023ALABAMA                   CHOCTAW                2024010101140002023
9999900000NON-METRO                                         203B S01630000498257063795007711250958350AL025ALABAMA                   CLARKE                 2024010101630002023
9999900000NON-METRO                                         203B S00990000498257063795007711250958350AL027ALABAMA                   CLAY                   2024010100990002023
9999900000NON-METRO                                         203B S01670000498257063795007711250958350AL029ALABAMA                   CLEBURNE               2024010101770002020
2146000000ENTERPRISE, AL                                    203B S01700000498257063795007711250958350AL031ALABAMA                   COFFEE                 2024010101700002023
2252000000FLORENCE-MUSCLE SHOALS, AL                        203B S01600000498257063795007711250958350AL033ALABAMA                   COLBERT                2024010101760002019
9999900000NON-METRO                                         203B S01190000498257063795007711250958350AL035ALABAMA                   CONECUH                2024010101190002023
1076000000ALEXANDER CITY, AL                                203B S01600000498257063795007711250958350AL037ALABAMA                   COOSA                  2024010101950002016
9999900000NON-METRO                                         203B S01000000498257063795007711250958350AL039ALABAMA                   COVINGTON              2024010101030002022
9999900000NON-METRO                                         203B S01230000498257063795007711250958350AL041ALABAMA                   CRENSHAW               2024010101230002023
1898000000CULLMAN, AL                                       203B S01600000498257063795007711250958350AL043ALABAMA                   CULLMAN                2024010101600002023
3712000000OZARK, AL                                         203B S01180000498257063795007711250958350AL045ALABAMA                   DALE                   2024010101180002012
4282000000SELMA, AL                                         203B S00550000498257063795007711250958350AL047ALABAMA                   DALLAS                 2024010100970002010
2284000000FORT PAYNE, AL                                    203B S00860000498257063795007711250958350AL049ALABAMA                   DEKALB                 2024010101460002019
3386000000MONTGOMERY, AL                                    203B S01910000498257063795007711250958350AL051ALABAMA                   ELMORE                 2024010101910002023
1212000000ATMORE, AL                                        203B S01380000498257063795007711250958350AL053ALABAMA                   ESCAMBIA               2024010102070002022
2346000000GADSDEN, AL                                       203B S01960000498257063795007711250958350AL055ALABAMA                   ETOWAH                 2024010101960002023
9999900000NON-METRO                                         203B S00680000498257063795007711250958350AL057ALABAMA                   FAYETTE                2024010101110002010
9999900000NON-METRO                                         203B S00970000498257063795007711250958350AL059ALABAMA                   FRANKLIN               2024010100970002023
2002000000DOTHAN, AL                                        203B S01770000498257063795007711250958350AL061ALABAMA                   GENEVA                 2024010101770002023
4622000000TUSCALOOSA, AL                                    203B S02050000498257063795007711250958350AL063ALABAMA                   GREENE                 2024010102880002015
4622000000TUSCALOOSA, AL                                    203B S02050000498257063795007711250958350AL065ALABAMA                   HALE                   2024010102880002015
2002000000DOTHAN, AL                                        203B S01770000498257063795007711250958350AL067ALABAMA                   HENRY                  2024010101770002023
2002000000DOTHAN, AL                                        203B S01770000498257063795007711250958350AL069ALABAMA                   HOUSTON                2024010101770002023
4246000000SCOTTSBORO, AL                                    203B S01630000498257063795007711250958350AL071ALABAMA                   JACKSON                2024010101630002023
1382000000BIRMINGHAM-HOOVER, AL                             203B S02990000498257063795007711250958350AL073ALABAMA                   JEFFERSON              2024010102990002023
9999900000NON-METRO                                         203B S01460000498257063795007711250958350AL075ALABAMA                   LAMAR                  2024010103520002022
2252000000FLORENCE-MUSCLE SHOALS, AL                        203B S01600000498257063795007711250958350AL077ALABAMA                   LAUDERDALE             2024010101760002019
1946000000DECATUR, AL                                       203B S02020000498257063795007711250958350AL079ALABAMA                   LAWRENCE               2024010102020002023
1222000000AUBURN-OPELIKA, AL                                203B S03030000498257063795007711250958350AL081ALABAMA                   LEE                    2024010103090002022
2662000000HUNTSVILLE, AL                                    203B S02850000498257063795007711250958350AL083ALABAMA                   LIMESTONE              2024010102850002023
3386000000MONTGOMERY, AL                                    203B S01910000498257063795007711250958350AL085ALABAMA                   LOWNDES                2024010101910002023
9999900000NON-METRO                                         203B S01210000498257063795007711250958350AL087ALABAMA                   MACON                  2024010101210002023
2662000000HUNTSVILLE, AL                                    203B S02850000498257063795007711250958350AL089ALABAMA                   MADISON                2024010102850002023
9999900000NON-METRO                                         203B S01280000498257063795007711250958350AL091ALABAMA                   MARENGO                2024010101280002023
9999900000NON-METRO                                         203B S01030000498257063795007711250958350AL093ALABAMA                   MARION                 2024010101200002022
1070000000ALBERTVILLE, AL                                   203B S01550000498257063795007711250958350AL095ALABAMA                   MARSHALL               2024010101550002023
3366000000MOBILE, AL                                        203B S01570000498257063795007711250958350AL097ALABAMA                   MOBILE                 2024010101570002023
9999900000NON-METRO                                         203B S00840000498257063795007711250958350AL099ALABAMA                   MONROE                 2024010101070002010
3386000000MONTGOMERY, AL                                    203B S01910000498257063795007711250958350AL101ALABAMA                   MONTGOMERY             2024010101910002023
1946000000DECATUR, AL                                       203B S02020000498257063795007711250958350AL103ALABAMA                   MORGAN                 2024010102020002023
9999900000NON-METRO                                         203B S01230000498257063795007711250958350AL105ALABAMA                   PERRY                  2024010101230002023
4622000000TUSCALOOSA, AL                                    203B S02050000498257063795007711250958350AL107ALABAMA                   PICKENS                2024010102880002015
4598000000TROY, AL                                          203B S01310000498257063795007711250958350AL109ALABAMA                   PIKE                   2024010101360002022
9999900000NON-METRO                                         203B S02750000498257063795007711250958350AL111ALABAMA                   RANDOLPH               2024010102750002023
1798000000COLUMBUS, GA-AL                                   203B S02770000498257063795007711250958350AL113ALABAMA                   RUSSELL                2024010102770002023
1382000000BIRMINGHAM-HOOVER, AL                             203B S02990000498257063795007711250958350AL115ALABAMA                   ST. CLAIR              2024010102990002023
1382000000BIRMINGHAM-HOOVER, AL                             203B S02990000498257063795007711250958350AL117ALABAMA                   SHELBY                 2024010102990002023
9999900000NON-METRO                                         203B S01150000498257063795007711250958350AL119ALABAMA                   SUMTER                 2024010101150002023
4518000000TALLADEGA-SYLACAUGA, AL                           203B S01080000498257063795007711250958350AL121ALABAMA                   TALLADEGA              2024010101580002009
1076000000ALEXANDER CITY, AL                                203B S01600000498257063795007711250958350AL123ALABAMA                   TALLAPOOSA             2024010101950002016
4622000000TUSCALOOSA, AL                                    203B S02050000498257063795007711250958350AL125ALABAMA                   TUSCALOOSA             2024010102880002015
2753000000JASPER, AL                                        203B S00690000498257063795007711250958350AL127ALABAMA                   WALKER                 2024010100860002008
3366000000MOBILE, AL                                        203B S01570000498257063795007711250958350AL129ALABAMA                   WASHINGTON             2024010101570002023
9999900000NON-METRO                                         203B S01200000498257063795007711250958350AL131ALABAMA                   WILCOX                 2024010101200002023
9999900000NON-METRO                                         203B S01000000498257063795007711250958350AL133ALABAMA                   WINSTON                2024010101140002021
9999900000NON-METRO                                         203B S00890000498257063795007711250958350AR001ARKANSAS                  ARKANSAS               2024010100970002021
9999900000NON-METRO                                         203B S00600000498257063795007711250958350AR003ARKANSAS                  ASHLEY                 2024010100790002013
3426000000MOUNTAIN HOME, AR                                 203B S01660000498257063795007711250958350AR005ARKANSAS                  BAXTER                 2024010101660002023
2222000000FAYETTEVILLE-SPRINGDALE-ROGERS, AR                203B S03360000498257063795007711250958350AR007ARKANSAS                  BENTON                 2024010103360002023
2546000000HARRISON, AR                                      203B S01620000498257063795007711250958350AR009ARKANSAS                  BOONE                  2024010101720002022
9999900000NON-METRO                                         203B S00550000498257063795007711250958350AR011ARKANSAS                  BRADLEY                2024010100660002022
1578000000CAMDEN, AR                                        203B S00600000498257063795007711250958350AR013ARKANSAS                  CALHOUN                2024010101730002009
9999900000NON-METRO                                         203B S01600000498257063795007711250958350AR015ARKANSAS                  CARROLL                2024010101600002023
9999900000NON-METRO                                         203B S00750000498257063795007711250958350AR017ARKANSAS                  CHICOT                 2024010101190002008
1166000000ARKADELPHIA, AR                                   203B S02190000498257063795007711250958350AR019ARKANSAS                  CLARK                  2024010102190002023
9999900000NON-METRO                                         203B S01060000498257063795007711250958350AR021ARKANSAS                  CLAY                   2024010101080002022
9999900000NON-METRO                                         203B S01550000498257063795007711250958350AR023ARKANSAS                  CLEBURNE               2024010101550002023
3822000000PINE BLUFF, AR                                    203B S01380000498257063795007711250958350AR025ARKANSAS                  CLEVELAND              2024010101380002023
3162000000MAGNOLIA, AR                                      203B S01490000498257063795007711250958350AR027ARKANSAS                  COLUMBIA               2024010101490002023
9999900000NON-METRO                                         203B S00940000498257063795007711250958350AR029ARKANSAS                  CONWAY                 2024010101540002022
2786000000JONESBORO, AR                                     203B S01900000498257063795007711250958350AR031ARKANSAS                  CRAIGHEAD              2024010101900002023
2290000000FORT SMITH, AR-OK                                 203B S01550000498257063795007711250958350AR033ARKANSAS                  CRAWFORD               2024010101750002020
3282000000MEMPHIS, TN-MS-AR                                 203B S03280000498257063795007711250958350AR035ARKANSAS                  CRITTENDEN             2024010103280002023
9999900000NON-METRO                                         203B S01070000498257063795007711250958350AR037ARKANSAS                  CROSS                  2024010101110002022
9999900000NON-METRO                                         203B S00560000498257063795007711250958350AR039ARKANSAS                  DALLAS                 2024010100830002008
9999900000NON-METRO                                         203B S00600000498257063795007711250958350AR041ARKANSAS                  DESHA                  2024010100780002022
9999900000NON-METRO                                         203B S01250000498257063795007711250958350AR043ARKANSAS                  DREW                   2024010101400002022
3078000000LITTLE ROCK-NORTH LITTLE ROCK-CONWAY, AR          203B S02140000498257063795007711250958350AR045ARKANSAS                  FAULKNER               2024010102140002023
2290000000FORT SMITH, AR-OK                                 203B S01550000498257063795007711250958350AR047ARKANSAS                  FRANKLIN               2024010101750002020
9999900000NON-METRO                                         203B S00800000498257063795007711250958350AR049ARKANSAS                  FULTON                 2024010101080002019
2630000000HOT SPRINGS, AR                                   203B S01870000498257063795007711250958350AR051ARKANSAS                  GARLAND                2024010101870002023
3078000000LITTLE ROCK-NORTH LITTLE ROCK-CONWAY, AR          203B S02140000498257063795007711250958350AR053ARKANSAS                  GRANT                  2024010102140002023
3750000000PARAGOULD, AR                                     203B S01400000498257063795007711250958350AR055ARKANSAS                  GREENE                 2024010101400002022
2626000000HOPE, AR                                          203B S01000000498257063795007711250958350AR057ARKANSAS                  HEMPSTEAD              2024010101000002023
3168000000MALVERN, AR                                       203B S01200000498257063795007711250958350AR059ARKANSAS                  HOT SPRING             2024010101390002022
9999900000NON-METRO                                         203B S00940000498257063795007711250958350AR061ARKANSAS                  HOWARD                 2024010101050002019
1290000000BATESVILLE, AR                                    203B S01150000498257063795007711250958350AR063ARKANSAS                  INDEPENDENCE           2024010101150002022
9999900000NON-METRO                                         203B S01060000498257063795007711250958350AR065ARKANSAS                  IZARD                  2024010101060002023
9999900000NON-METRO                                         203B S00530000498257063795007711250958350AR067ARKANSAS                  JACKSON                2024010100970002022
3822000000PINE BLUFF, AR                                    203B S01380000498257063795007711250958350AR069ARKANSAS                  JEFFERSON              2024010101380002023
9999900000NON-METRO                                         203B S00960000498257063795007711250958350AR071ARKANSAS                  JOHNSON                2024010101460002022
9999900000NON-METRO                                         203B S00630000498257063795007711250958350AR073ARKANSAS                  LAFAYETTE              2024010100800002022
9999900000NON-METRO                                         203B S00650000498257063795007711250958350AR075ARKANSAS                  LAWRENCE               2024010100670002022
9999900000NON-METRO                                         203B S01050000498257063795007711250958350AR077ARKANSAS                  LEE                    2024010101220002020
3822000000PINE BLUFF, AR                                    203B S01380000498257063795007711250958350AR079ARKANSAS                  LINCOLN                2024010101380002023
4550000000TEXARKANA, TX-AR                                  203B S01690000498257063795007711250958350AR081ARKANSAS                  LITTLE RIVER           2024010101760002022
9999900000NON-METRO                                         203B S00770000498257063795007711250958350AR083ARKANSAS                  LOGAN                  2024010101460002022
3078000000LITTLE ROCK-NORTH LITTLE ROCK-CONWAY, AR          203B S02140000498257063795007711250958350AR085ARKANSAS                  LONOKE                 2024010102140002023
2222000000FAYETTEVILLE-SPRINGDALE-ROGERS, AR                203B S03360000498257063795007711250958350AR087ARKANSAS                  MADISON                2024010103360002023
9999900000NON-METRO                                         203B S01500000498257063795007711250958350AR089ARKANSAS                  MARION                 2024010101790002022
4550000000TEXARKANA, TX-AR                                  203B S01690000498257063795007711250958350AR091ARKANSAS                  MILLER                 2024010101760002022
1418000000BLYTHEVILLE, AR                                   203B S00750000498257063795007711250958350AR093ARKANSAS                  MISSISSIPPI            2024010101080002019
9999900000NON-METRO                                         203B S00480000498257063795007711250958350AR095ARKANSAS                  MONROE                 2024010101120002022
9999900000NON-METRO                                         203B S01630000498257063795007711250958350AR097ARKANSAS                  MONTGOMERY             2024010101630002023
2626000000HOPE, AR                                          203B S01000000498257063795007711250958350AR099ARKANSAS                  NEVADA                 2024010101000002023
2546000000HARRISON, AR                                      203B S01620000498257063795007711250958350AR101ARKANSAS                  NEWTON                 2024010101720002022
1578000000CAMDEN, AR                                        203B S00600000498257063795007711250958350AR103ARKANSAS                  OUACHITA               2024010101730002009
3078000000LITTLE ROCK-NORTH LITTLE ROCK-CONWAY, AR          203B S02140000498257063795007711250958350AR105ARKANSAS                  PERRY                  2024010102140002023
2576000000HELENA-WEST HELENA, AR                            203B S00450000498257063795007711250958350AR107ARKANSAS                  PHILLIPS               2024010100650002013
9999900000NON-METRO                                         203B S00900000498257063795007711250958350AR109ARKANSAS                  PIKE                   2024010101490002020
2786000000JONESBORO, AR                                     203B S01900000498257063795007711250958350AR111ARKANSAS                  POINSETT               2024010101900002023
9999900000NON-METRO                                         203B S01060000498257063795007711250958350AR113ARKANSAS                  POLK                   2024010101070002022
4078000000RUSSELLVILLE, AR                                  203B S01570000498257063795007711250958350AR115ARKANSAS                  POPE                   2024010101570002023
9999900000NON-METRO                                         203B S00750000498257063795007711250958350AR117ARKANSAS                  PRAIRIE                2024010101000002022
3078000000LITTLE ROCK-NORTH LITTLE ROCK-CONWAY, AR          203B S02140000498257063795007711250958350AR119ARKANSAS                  PULASKI                2024010102140002023
9999900000NON-METRO                                         203B S00900000498257063795007711250958350AR121ARKANSAS                  RANDOLPH               2024010101100002022
2262000000FORREST CITY, AR                                  203B S00530000498257063795007711250958350AR123ARKANSAS                  ST. FRANCIS            2024010100680002022
3078000000LITTLE ROCK-NORTH LITTLE ROCK-CONWAY, AR          203B S02140000498257063795007711250958350AR125ARKANSAS                  SALINE                 2024010102140002023
9999900000NON-METRO                                         203B S00800000498257063795007711250958350AR127ARKANSAS                  SCOTT                  2024010100890002022
9999900000NON-METRO                                         203B S00920000498257063795007711250958350AR129ARKANSAS                  SEARCY                 2024010100920002023
2290000000FORT SMITH, AR-OK                                 203B S01550000498257063795007711250958350AR131ARKANSAS                  SEBASTIAN              2024010101750002020
9999900000NON-METRO                                         203B S00820000498257063795007711250958350AR133ARKANSAS                  SEVIER                 2024010100910002020
1290000000BATESVILLE, AR                                    203B S01150000498257063795007711250958350AR135ARKANSAS                  SHARP                  2024010101150002022
9999900000NON-METRO                                         203B S01700000498257063795007711250958350AR137ARKANSAS                  STONE                  2024010101840002022
2098000000EL DORADO, AR                                     203B S01100000498257063795007711250958350AR139ARKANSAS                  UNION                  2024010101150002009
9999900000NON-METRO                                         203B S01010000498257063795007711250958350AR141ARKANSAS                  VAN BUREN              2024010101010002023
2222000000FAYETTEVILLE-SPRINGDALE-ROGERS, AR                203B S03360000498257063795007711250958350AR143ARKANSAS                  WASHINGTON             2024010103360002023
4262000000SEARCY, AR                                        203B S01500000498257063795007711250958350AR145ARKANSAS                  WHITE                  2024010101500002023
9999900000NON-METRO                                         203B S00410000498257063795007711250958350AR147ARKANSAS                  WOODRUFF               2024010101010002022
4078000000RUSSELLVILLE, AR                                  203B S01570000498257063795007711250958350AR149ARKANSAS                  YELL                   2024010101570002023
9999900000NON-METRO                                         203B S00960000498257063795007711250958350AS010AMERICAN SAMOA            EASTERN DISTRIC        2024010101220002008
9999900000NON-METRO                                         203B S01240000498257063795007711250958350AS020AMERICAN SAMOA            MANU'A DISTRICT        2024010102300002008
9999900000NON-METRO                                         203B S01220000498257063795007711250958350AS030AMERICAN SAMOA            ROSE ISLAND            2024010101280002008
9999900000NON-METRO                                         203B S01220000498257063795007711250958350AS040AMERICAN SAMOA            SWAINS ISLAND          2024010101220002023
9999900000NON-METRO                                         203B S01450000498257063795007711250958350AS050AMERICAN SAMOA            WESTERN DISTRIC        2024010101450002023
9999900000NON-METRO                                         203B S01300000498257063795007711250958350AZ001ARIZONA                   APACHE                 2024010101500002008
4342000000SIERRA VISTA-DOUGLAS, AZ                          203B S02150000498257063795007711250958350AZ003ARIZONA                   COCHISE                2024010102150002023
2238000000FLAGSTAFF, AZ                                     203B H04570000525550067280008132501010700AZ005ARIZONA                   COCONINO               2024010104570002023
3774000000PAYSON, AZ                                        203B S03100000498257063795007711250958350AZ007ARIZONA                   GILA                   2024010103100002023
4094000000SAFFORD, AZ                                       203B S02230000498257063795007711250958350AZ009ARIZONA                   GRAHAM                 2024010102230002023
9999900000NON-METRO                                         203B S01340000498257063795007711250958350AZ011ARIZONA                   GREENLEE               2024010101340002023
9999900000NON-METRO                                         203B S01250000498257063795007711250958350AZ012ARIZONA                   LA PAZ                 2024010101250002023
3806000000PHOENIX-MESA-CHANDLER, AZ                         203B H04600000530150067870008203501019550AZ013ARIZONA                   MARICOPA               2023010104610002022
2942000000LAKE HAVASU CITY-KINGMAN, AZ                      203B S02380000498257063795007711250958350AZ015ARIZONA                   MOHAVE                 2024010102490002022
4332000000SHOW LOW, AZ                                      203B S02600000498257063795007711250958350AZ017ARIZONA                   NAVAJO                 2024010102600002023
4606000000TUCSON, AZ                                        203B S03500000498257063795007711250958350AZ019ARIZONA                   PIMA                   2024010103500002023
3806000000PHOENIX-MESA-CHANDLER, AZ                         203B H04600000530150067870008203501019550AZ021ARIZONA                   PINAL                  2023010104610002022
3570000000NOGALES, AZ                                       203B S02650000498257063795007711250958350AZ023ARIZONA                   SANTA CRUZ             2024010102650002023
3915000000PRESCOTT VALLEY-PRESCOTT, AZ                      203B S04180000498257063795007711250958350AZ025ARIZONA                   YAVAPAI                2024010104180002023
4974000000YUMA, AZ                                          203B S02320000498257063795007711250958350AZ027ARIZONA                   YUMA                   2024010102320002023
4186036084SAN FRANCISCO-OAKLAND-BERKELEY, CA                203B H15950001149825147225017795252211600CA001CALIFORNIA                ALAMEDA                2024010117350002022
9999900000NON-METRO                                         203B H04380000503700064480007794500968650CA003CALIFORNIA                ALPINE                 2024010104380002023
9999900000NON-METRO                                         203B S03880000498257063795007711250958350CA005CALIFORNIA                AMADOR                 2024010103950002022
1702000000CHICO, CA                                         203B S02840000498257063795007711250958350CA007CALIFORNIA                BUTTE                  2024010103100002022
9999900000NON-METRO                                         203B S03750000498257063795007711250958350CA009CALIFORNIA                CALAVERAS              2024010103990002022
9999900000NON-METRO                                         203B S03670000498257063795007711250958350CA011CALIFORNIA                COLUSA                 2024010103670002023
4186036084SAN FRANCISCO-OAKLAND-BERKELEY, CA                203B H15950001149825147225017795252211600CA013CALIFORNIA                CONTRA COSTA           2024010117350002022
1886000000CRESCENT CITY, CA                                 203B S02800000498257063795007711250958350CA015CALIFORNIA                DEL NORTE              2024010102800002023
4090000000SACRAMENTO-ROSEVILLE-FOLSOM, CA                   203B H06350000763600097755011816501468500CA017CALIFORNIA                EL DORADO              2023010106640002022
2342000000FRESNO, CA                                        203B S03950000498257063795007711250958350CA019CALIFORNIA                FRESNO                 2024010103950002023
9999900000NON-METRO                                         203B S03090000498257063795007711250958350CA021CALIFORNIA                GLENN                  2024010103090002022
2170000000EUREKA-ARCATA, CA                                 203B S03950000498257063795007711250958350CA023CALIFORNIA                HUMBOLDT               2024010104000002022
2094000000EL CENTRO, CA                                     203B S03100000498257063795007711250958350CA025CALIFORNIA                IMPERIAL               2024010103100002023
9999900000NON-METRO                                         203B H04000000508300065070007865500977500CA027CALIFORNIA                INYO                   2023010104420002022
1254000000BAKERSFIELD, CA                                   203B S03350000498257063795007711250958350CA029CALIFORNIA                KERN                   2024010103350002023
2526000000HANFORD-CORCORAN, CA                              203B S03370000498257063795007711250958350CA031CALIFORNIA                KINGS                  2024010103370002023
1734000000CLEARLAKE, CA                                     203B S02500000498257063795007711250958350CA033CALIFORNIA                LAKE                   2024010102590002022
4500000000SUSANVILLE, CA                                    203B S01900000498257063795007711250958350CA035CALIFORNIA                LASSEN                 2024010101900002008
3108031084LOS ANGELES-LONG BEACH-ANAHEIM, CA                203B H11500001149825147225017795252211600CA037CALIFORNIA                LOS ANGELES            2024010111500002023
3146000000MADERA, CA                                        203B S04000000498257063795007711250958350CA039CALIFORNIA                MADERA                 2024010104000002022
4186042034SAN FRANCISCO-OAKLAND-BERKELEY, CA                203B H15950001149825147225017795252211600CA041CALIFORNIA                MARIN                  2024010117350002022
9999900000NON-METRO                                         203B S03030000498257063795007711250958350CA043CALIFORNIA                MARIPOSA               2024010103200002022
4638000000UKIAH, CA                                         203B H04280000546250069930008453001050500CA045CALIFORNIA                MENDOCINO              2023010104750002022
3290000000MERCED, CA                                        203B S03900000498257063795007711250958350CA047CALIFORNIA                MERCED                 2024010104050002022
9999900000NON-METRO                                         203B S01520000498257063795007711250958350CA049CALIFORNIA                MODOC                  2024010101520002023
9999900000NON-METRO                                         203B H05810000693450088775010731001333600CA051CALIFORNIA                MONO                   2023010106030002022
4150000000SALINAS, CA                                       203B H08000000920000117775014236501769250CA053CALIFORNIA                MONTEREY               2024010108000002023
3490000000NAPA, CA                                          203B H08550001017750130290015749001957250CA055CALIFORNIA                NAPA                   2023010108850002022
4602000000TRUCKEE-GRASS VALLEY, CA                          203B H05500000644000082445009965501238500CA057CALIFORNIA                NEVADA                 2023010105600002022
3108011244LOS ANGELES-LONG BEACH-ANAHEIM, CA                203B H11500001149825147225017795252211600CA059CALIFORNIA                ORANGE                 2024010111500002023
4090000000SACRAMENTO-ROSEVILLE-FOLSOM, CA                   203B H06350000763600097755011816501468500CA061CALIFORNIA                PLACER                 2023010106640002022
9999900000NON-METRO                                         203B S03000000498257063795007711250958350CA063CALIFORNIA                PLUMAS                 2024010103000002022
4014000000RIVERSIDE-SAN BERNARDINO-ONTARIO, CA              203B H05570000644000082445009965501238500CA065CALIFORNIA                RIVERSIDE              2023010105600002022
4090000000SACRAMENTO-ROSEVILLE-FOLSOM, CA                   203B H06350000763600097755011816501468500CA067CALIFORNIA                SACRAMENTO             2023010106640002022
4194000000SAN JOSE-SUNNYVALE-SANTA CLARA, CA                203B H16000001149825147225017795252211600CA069CALIFORNIA                SAN BENITO             2024010116230002022
4014000000RIVERSIDE-SAN BERNARDINO-ONTARIO, CA              203B H05570000644000082445009965501238500CA071CALIFORNIA                SAN BERNARDINO         2023010105600002022
4174000000SAN DIEGO-CHULA VISTA-CARLSBAD, CA                203B H08750001006250128820015571501935150CA073CALIFORNIA                SAN DIEGO              2024010108750002023
4186041884SAN FRANCISCO-OAKLAND-BERKELEY, CA                203B H15950001149825147225017795252211600CA075CALIFORNIA                SAN FRANCISCO          2024010117350002022
4470000000STOCKTON, CA                                      203B H05650000656650084065010161501262800CA077CALIFORNIA                SAN JOAQUIN            2023010105710002022
4202000000SAN LUIS OBISPO-PASO ROBLES, CA                   203B H08080000929200118955014379001786950CA079CALIFORNIA                SAN LUIS OBISPO        2024010108080002023
4186041884SAN FRANCISCO-OAKLAND-BERKELEY, CA                203B H15950001149825147225017795252211600CA081CALIFORNIA                SAN MATEO              2024010117350002022
4220000000SANTA MARIA-SANTA BARBARA, CA                     203B H07290000838350107325012973001612250CA083CALIFORNIA                SANTA BARBARA          2024010107290002023
4194000000SAN JOSE-SUNNYVALE-SANTA CLARA, CA                203B H16000001149825147225017795252211600CA085CALIFORNIA                SANTA CLARA            2024010116230002022
4210000000SANTA CRUZ-WATSONVILLE, CA                        203B H10700001149825147225017795252211600CA087CALIFORNIA                SANTA CRUZ             2024010110700002023
3982000000REDDING, CA                                       203B S03400000498257063795007711250958350CA089CALIFORNIA                SHASTA                 2024010103450002022
9999900000NON-METRO                                         203B S02750000498257063795007711250958350CA091CALIFORNIA                SIERRA                 2024010102750002023
9999900000NON-METRO                                         203B S02150000498257063795007711250958350CA093CALIFORNIA                SISKIYOU               2024010102350002022
4670000000VALLEJO, CA                                       203B H05900000685400087745010606001318100CA095CALIFORNIA                SOLANO                 2023010105960002022
4222000000SANTA ROSA-PETALUMA, CA                           203B H07630000877450112330013578001687450CA097CALIFORNIA                SONOMA                 2024010107630002023
3370000000MODESTO, CA                                       203B H04490000517500066250008008000995200CA099CALIFORNIA                STANISLAUS             2023010104500002022
4970000000YUBA CITY, CA                                     203B S04250000498257063795007711250958350CA101CALIFORNIA                SUTTER                 2024010104250002022
3978000000RED BLUFF, CA                                     203B S02750000498257063795007711250958350CA103CALIFORNIA                TEHAMA                 2024010102850002022
9999900000NON-METRO                                         203B S01850000498257063795007711250958350CA105CALIFORNIA                TRINITY                2024010102400002021
4730000000VISALIA, CA                                       203B S03400000498257063795007711250958350CA107CALIFORNIA                TULARE                 2024010103400002023
4376000000SONORA, CA                                        203B S03570000498257063795007711250958350CA109CALIFORNIA                TUOLUMNE               2024010103690002022
3710000000OXNARD-THOUSAND OAKS-VENTURA, CA                  203B H08300000954500122195014770501835600CA111CALIFORNIA                VENTURA                2024010108300002023
4090000000SACRAMENTO-ROSEVILLE-FOLSOM, CA                   203B H06350000763600097755011816501468500CA113CALIFORNIA                YOLO                   2023010106640002022
4970000000YUBA CITY, CA                                     203B S04250000498257063795007711250958350CA115CALIFORNIA                YUBA                   2024010104250002022
1974000000DENVER-AURORA-LAKEWOOD, CO                        203B H07100000816500104525012635001570200CO001COLORADO                  ADAMS                  2024010107100002023
9999900000NON-METRO                                         203B S02090000498257063795007711250958350CO003COLORADO                  ALAMOSA                2024010102200002022
1974000000DENVER-AURORA-LAKEWOOD, CO                        203B H07100000816500104525012635001570200CO005COLORADO                  ARAPAHOE               2024010107100002023
9999900000NON-METRO                                         203B S03750000498257063795007711250958350CO007COLORADO                  ARCHULETA              2024010103750002023
9999900000NON-METRO                                         203B S00800000498257063795007711250958350CO009COLORADO                  BACA                   2024010100800002023
9999900000NON-METRO                                         203B S01280000498257063795007711250958350CO011COLORADO                  BENT                   2024010101280002021
1450000000BOULDER, CO                                       203B H07370000856750109680013258001647650CO013COLORADO                  BOULDER                2023010107450002022
1974000000DENVER-AURORA-LAKEWOOD, CO                        203B H07100000816500104525012635001570200CO014COLORADO                  BROOMFIELD             2024010107100002023
9999900000NON-METRO                                         203B H05500000632500080970009787501216350CO015COLORADO                  CHAFFEE                2024010105500002023
9999900000NON-METRO                                         203B S01000000498257063795007711250958350CO017COLORADO                  CHEYENNE               2024010101160002009
1974000000DENVER-AURORA-LAKEWOOD, CO                        203B H07100000816500104525012635001570200CO019COLORADO                  CLEAR CREEK            2024010107100002023
9999900000NON-METRO                                         203B S01200000498257063795007711250958350CO021COLORADO                  CONEJOS                2024010101340002019
9999900000NON-METRO                                         203B S00700000498257063795007711250958350CO023COLORADO                  COSTILLA               2024010101110002017
9999900000NON-METRO                                         203B S01670000498257063795007711250958350CO025COLORADO                  CROWLEY                2024010101670002023
9999900000NON-METRO                                         203B S02580000498257063795007711250958350CO027COLORADO                  CUSTER                 2024010102580002023
9999900000NON-METRO                                         203B S03040000498257063795007711250958350CO029COLORADO                  DELTA                  2024010103040002023
1974000000DENVER-AURORA-LAKEWOOD, CO                        203B H07100000816500104525012635001570200CO031COLORADO                  DENVER                 2024010107100002023
9999900000NON-METRO                                         203B S01550000498257063795007711250958350CO033COLORADO                  DOLORES                2024010102000002022
1974000000DENVER-AURORA-LAKEWOOD, CO                        203B H07100000816500104525012635001570200CO035COLORADO                  DOUGLAS                2024010107100002023
2078000000EDWARDS, CO                                       203B H11730001149825147225017795252211600CO037COLORADO                  EAGLE                  2024010111730002023
1974000000DENVER-AURORA-LAKEWOOD, CO                        203B H07100000816500104525012635001570200CO039COLORADO                  ELBERT                 2024010107100002023
1782000000COLORADO SPRINGS, CO                              203B H04500000517500066250008008000995200CO041COLORADO                  EL PASO                2023010104500002022
1586000000CANON CITY, CO                                    203B S02850000498257063795007711250958350CO043COLORADO                  FREMONT                2024010102860002022
2406000000GLENWOOD SPRINGS, CO                              203B H10500001149825147225017795252211600CO045COLORADO                  GARFIELD               2024010119000002009
1974000000DENVER-AURORA-LAKEWOOD, CO                        203B H07100000816500104525012635001570200CO047COLORADO                  GILPIN                 2024010107100002023
9999900000NON-METRO                                         203B H06500000747500095695011567001437500CO049COLORADO                  GRAND                  2024010106500002023
9999900000NON-METRO                                         203B H05510000633650081120009805501218550CO051COLORADO                  GUNNISON               2024010105510002023
9999900000NON-METRO                                         203B S03450000498257063795007711250958350CO053COLORADO                  HINSDALE               2024010103720002009
9999900000NON-METRO                                         203B S01530000498257063795007711250958350CO055COLORADO                  HUERFANO               2024010101650002022
9999900000NON-METRO                                         203B S01750000498257063795007711250958350CO057COLORADO                  JACKSON                2024010102030002022
1974000000DENVER-AURORA-LAKEWOOD, CO                        203B H07100000816500104525012635001570200CO059COLORADO                  JEFFERSON              2024010107100002023
9999900000NON-METRO                                         203B S01110000498257063795007711250958350CO061COLORADO                  KIOWA                  2024010101110002023
9999900000NON-METRO                                         203B S01710000498257063795007711250958350CO063COLORADO                  KIT CARSON             2024010101930002022
9999900000NON-METRO                                         203B S03590000498257063795007711250958350CO065COLORADO                  LAKE                   2024010103590002023
2042000000DURANGO, CO                                       203B H05700000655500083915010143501260600CO067COLORADO                  LA PLATA               2024010105700002023
2266000000FORT COLLINS, CO                                  203B H05500000632500080970009787501216350CO069COLORADO                  LARIMER                2024010105500002023
9999900000NON-METRO                                         203B S01610000498257063795007711250958350CO071COLORADO                  LAS ANIMAS             2024010101790002022
9999900000NON-METRO                                         203B S01730000498257063795007711250958350CO073COLORADO                  LINCOLN                2024010101730002023
4454000000STERLING, CO                                      203B S02150000498257063795007711250958350CO075COLORADO                  LOGAN                  2024010102150002023
2430000000GRAND JUNCTION, CO                                203B S03750000498257063795007711250958350CO077COLORADO                  MESA                   2024010103750002023
9999900000NON-METRO                                         203B S02520000498257063795007711250958350CO079COLORADO                  MINERAL                2024010103000002020
1878000000CRAIG, CO                                         203B S02570000498257063795007711250958350CO081COLORADO                  MOFFAT                 2024010102570002023
9999900000NON-METRO                                         203B S02860000498257063795007711250958350CO083COLORADO                  MONTEZUMA              2024010102860002023
3394000000MONTROSE, CO                                      203B H04880000561200071845008684001079250CO085COLORADO                  MONTROSE               2024010104880002023
2282000000FORT MORGAN, CO                                   203B S03160000498257063795007711250958350CO087COLORADO                  MORGAN                 2024010103160002023
9999900000NON-METRO                                         203B S01370000498257063795007711250958350CO089COLORADO                  OTERO                  2024010101450002022
3394000000MONTROSE, CO                                      203B H04880000561200071845008684001079250CO091COLORADO                  OURAY                  2024010104880002023
1974000000DENVER-AURORA-LAKEWOOD, CO                        203B H07100000816500104525012635001570200CO093COLORADO                  PARK                   2024010107100002023
9999900000NON-METRO                                         203B S01790000498257063795007711250958350CO095COLORADO                  PHILLIPS               2024010101800002022
2406000000GLENWOOD SPRINGS, CO                              203B H10500001149825147225017795252211600CO097COLORADO                  PITKIN                 2024010119000002009
9999900000NON-METRO                                         203B S01800000498257063795007711250958350CO099COLORADO                  PROWERS                2024010101800002023
3938000000PUEBLO, CO                                        203B S02800000498257063795007711250958350CO101COLORADO                  PUEBLO                 2024010102800002023
9999900000NON-METRO                                         203B S02050000498257063795007711250958350CO103COLORADO                  RIO BLANCO             2024010102190002021
9999900000NON-METRO                                         203B S01550000498257063795007711250958350CO105COLORADO                  RIO GRANDE             2024010101700002022
4446000000STEAMBOAT SPRINGS, CO                             203B H08800001012000129555015660501946200CO107COLORADO                  ROUTT                  2024010108800002023
9999900000NON-METRO                                         203B S01270000498257063795007711250958350CO109COLORADO                  SAGUACHE               2024010101750002021
9999900000NON-METRO                                         203B H04500000517500066250008008000995200CO111COLORADO                  SAN JUAN               2024010104500002023
9999900000NON-METRO                                         203B H08650001045350133825016176502010350CO113COLORADO                  SAN MIGUEL             2023010109090002012
9999900000NON-METRO                                         203B S01350000498257063795007711250958350CO115COLORADO                  SEDGWICK               2024010101350002023
1472000000BRECKENRIDGE, CO                                  203B H08750001006250128820015571501935150CO117COLORADO                  SUMMIT                 2024010108750002023
1782000000COLORADO SPRINGS, CO                              203B H04500000517500066250008008000995200CO119COLORADO                  TELLER                 2023010104500002022
9999900000NON-METRO                                         203B S01500000498257063795007711250958350CO121COLORADO                  WASHINGTON             2024010101750002021
2454000000GREELEY, CO                                       203B H04870000560050071695008666501077050CO123COLORADO                  WELD                   2024010104870002023
9999900000NON-METRO                                         203B S01850000498257063795007711250958350CO125COLORADO                  YUMA                   2024010101850002023
1486000000BRIDGEPORT-STAMFORD-NORWALK, CT                   203B H06250000718750092015011122501382250CT001CONNECTICUT               FAIRFIELD              2024010106250002023
2554000000HARTFORD-EAST HARTFORD-MIDDLETOWN, CT             203B S03600000498257063795007711250958350CT003CONNECTICUT               HARTFORD               2024010103600002023
4586000000TORRINGTON, CT                                    203B S03310000498257063795007711250958350CT005CONNECTICUT               LITCHFIELD             2024010103310002023
2554000000HARTFORD-EAST HARTFORD-MIDDLETOWN, CT             203B S03600000498257063795007711250958350CT007CONNECTICUT               MIDDLESEX              2024010103600002023
3530000000NEW HAVEN-MILFORD, CT                             203B S03250000498257063795007711250958350CT009CONNECTICUT               NEW HAVEN              2024010103250002023
3598000000NORWICH-NEW LONDON, CT                            203B S03250000498257063795007711250958350CT011CONNECTICUT               NEW LONDON             2024010103250002023
2554000000HARTFORD-EAST HARTFORD-MIDDLETOWN, CT             203B S03600000498257063795007711250958350CT013CONNECTICUT               TOLLAND                2024010103600002023
4934000000WORCESTER, MA-CT                                  203B S04200000498257063795007711250958350CT015CONNECTICUT               WINDHAM                2024010104200002023
4790047894WASHINGTON-ARLINGTON-ALEXANDRIA, DC-VA-MD-WV      203B H10720001149825147225017795252211600DC001DISTRICT OF COLUMBIA      DISTRICT OF COL        2024010110720002023
2010000000DOVER, DE                                         203B S03000000498257063795007711250958350DE001DELAWARE                  KENT                   2024010103000002023
3798048864PHILADELPHIA-CAMDEN-WILMINGTON, PA-NJ-DE-MD       203B H04850000557750071400008631001072600DE003DELAWARE                  NEW CASTLE             2024010104850002023
4154000000SALISBURY, MD-DE                                  203B S04000000498257063795007711250958350DE005DELAWARE                  SUSSEX                 2024010104000002023
2354000000GAINESVILLE, FL                                   203B S03050000498257063795007711250958350FL001FLORIDA                   ALACHUA                2024010103050002023
2726000000JACKSONVILLE, FL                                  203B H04910000564650072285008737501085900FL003FLORIDA                   BAKER                  2024010104910002023
3746000000PANAMA CITY, FL                                   203B S03200000498257063795007711250958350FL005FLORIDA                   BAY                    2024010103200002023
9999900000NON-METRO                                         203B S01700000498257063795007711250958350FL007FLORIDA                   BRADFORD               2024010101700002023
3734000000PALM BAY-MELBOURNE-TITUSVILLE, FL                 203B S03420000498257063795007711250958350FL009FLORIDA                   BREVARD                2024010103420002023
3310022744MIAMI-FORT LAUDERDALE-POMPANO BEACH, FL           203B H05400000621000079500009609501194250FL011FLORIDA                   BROWARD                2024010105400002023
9999900000NON-METRO                                         203B S00750000498257063795007711250958350FL013FLORIDA                   CALHOUN                2024010100940002022
3946000000PUNTA GORDA, FL                                   203B S03290000498257063795007711250958350FL015FLORIDA                   CHARLOTTE              2024010103290002023
2614000000HOMOSASSA SPRINGS, FL                             203B S02350000498257063795007711250958350FL017FLORIDA                   CITRUS                 2024010102350002023
2726000000JACKSONVILLE, FL                                  203B H04910000564650072285008737501085900FL019FLORIDA                   CLAY                   2024010104910002023
3494000000NAPLES-MARCO ISLAND, FL                           203B H06350000730250093485011300001404350FL021FLORIDA                   COLLIER                2024010106350002023
2938000000LAKE CITY, FL                                     203B S01740000498257063795007711250958350FL023FLORIDA                   COLUMBIA               2024010101740002023
1158000000ARCADIA, FL                                       203B S01800000498257063795007711250958350FL027FLORIDA                   DESOTO                 2024010101910002022
9999900000NON-METRO                                         203B S00920000498257063795007711250958350FL029FLORIDA                   DIXIE                  2024010100930002008
2726000000JACKSONVILLE, FL                                  203B H04910000564650072285008737501085900FL031FLORIDA                   DUVAL                  2024010104910002023
3786000000PENSACOLA-FERRY PASS-BRENT, FL                    203B S03250000498257063795007711250958350FL033FLORIDA                   ESCAMBIA               2024010103250002023
1966000000DELTONA-DAYTONA BEACH-ORMOND BEACH, FL            203B S03500000498257063795007711250958350FL035FLORIDA                   FLAGLER                2024010103500002023
9999900000NON-METRO                                         203B S01660000498257063795007711250958350FL037FLORIDA                   FRANKLIN               2024010102130002009
4522000000TALLAHASSEE, FL                                   203B S02500000498257063795007711250958350FL039FLORIDA                   GADSDEN                2024010102500002023
2354000000GAINESVILLE, FL                                   203B S03050000498257063795007711250958350FL041FLORIDA                   GILCHRIST              2024010103050002023
9999900000NON-METRO                                         203B S01750000498257063795007711250958350FL043FLORIDA                   GLADES                 2024010101750002023
9999900000NON-METRO                                         203B S03100000498257063795007711250958350FL045FLORIDA                   GULF                   2024010103100002023
9999900000NON-METRO                                         203B S01000000498257063795007711250958350FL047FLORIDA                   HAMILTON               2024010101100002022
4810000000WAUCHULA, FL                                      203B S01250000498257063795007711250958350FL049FLORIDA                   HARDEE                 2024010101250002023
1750000000CLEWISTON, FL                                     203B S02150000498257063795007711250958350FL051FLORIDA                   HENDRY                 2024010102150002023
4530000000TAMPA-ST. PETERSBURG-CLEARWATER, FL               203B S04000000498257063795007711250958350FL053FLORIDA                   HERNANDO               2024010104000002023
4270000000SEBRING-AVON PARK, FL                             203B S02000000498257063795007711250958350FL055FLORIDA                   HIGHLANDS              2024010102000002023
4530000000TAMPA-ST. PETERSBURG-CLEARWATER, FL               203B S04000000498257063795007711250958350FL057FLORIDA                   HILLSBOROUGH           2024010104000002023
9999900000NON-METRO                                         203B S01220000498257063795007711250958350FL059FLORIDA                   HOLMES                 2024010101250002022
4268000000SEBASTIAN-VERO BEACH, FL                          203B S03660000498257063795007711250958350FL061FLORIDA                   INDIAN RIVER           2024010103660002023
9999900000NON-METRO                                         203B S01300000498257063795007711250958350FL063FLORIDA                   JACKSON                2024010101300002023
4522000000TALLAHASSEE, FL                                   203B S02500000498257063795007711250958350FL065FLORIDA                   JEFFERSON              2024010102500002023
9999900000NON-METRO                                         203B S01000000498257063795007711250958350FL067FLORIDA                   LAFAYETTE              2024010101000002022
3674000000ORLANDO-KISSIMMEE-SANFORD, FL                     203B S04260000498257063795007711250958350FL069FLORIDA                   LAKE                   2024010104260002023
1598000000CAPE CORAL-FORT MYERS, FL                         203B S03700000498257063795007711250958350FL071FLORIDA                   LEE                    2024010103700002023
4522000000TALLAHASSEE, FL                                   203B S02500000498257063795007711250958350FL073FLORIDA                   LEON                   2024010102500002023
2354000000GAINESVILLE, FL                                   203B S03050000498257063795007711250958350FL075FLORIDA                   LEVY                   2024010103050002023
9999900000NON-METRO                                         203B S00790000498257063795007711250958350FL077FLORIDA                   LIBERTY                2024010101000002008
9999900000NON-METRO                                         203B S00820000498257063795007711250958350FL079FLORIDA                   MADISON                2024010100950002009
3584000000NORTH PORT-SARASOTA-BRADENTON, FL                 203B H04760000547400070075008470501052700FL081FLORIDA                   MANATEE                2024010104760002023
3610000000OCALA, FL                                         203B S02620000498257063795007711250958350FL083FLORIDA                   MARION                 2024010102620002023
3894000000PORT ST. LUCIE, FL                                203B H04750000546250069930008453001050500FL085FLORIDA                   MARTIN                 2024010104750002023
3310033124MIAMI-FORT LAUDERDALE-POMPANO BEACH, FL           203B H05400000621000079500009609501194250FL086FLORIDA                   MIAMI-DADE             2024010105400002023
2858000000KEY WEST, FL                                      203B H08080000929200118955014379001786950FL087FLORIDA                   MONROE                 2024010108080002023
2726000000JACKSONVILLE, FL                                  203B H04910000564650072285008737501085900FL089FLORIDA                   NASSAU                 2024010104910002023
1888000000CRESTVIEW-FORT WALTON BEACH-DESTIN, FL            203B H05180000603750077290009342501161050FL091FLORIDA                   OKALOOSA               2023010105250002022
3638000000OKEECHOBEE, FL                                    203B S01500000498257063795007711250958350FL093FLORIDA                   OKEECHOBEE             2024010101500002023
3674000000ORLANDO-KISSIMMEE-SANFORD, FL                     203B S04260000498257063795007711250958350FL095FLORIDA                   ORANGE                 2024010104260002023
3674000000ORLANDO-KISSIMMEE-SANFORD, FL                     203B S04260000498257063795007711250958350FL097FLORIDA                   OSCEOLA                2024010104260002023
3310048424MIAMI-FORT LAUDERDALE-POMPANO BEACH, FL           203B H05400000621000079500009609501194250FL099FLORIDA                   PALM BEACH             2024010105400002023
4530000000TAMPA-ST. PETERSBURG-CLEARWATER, FL               203B S04000000498257063795007711250958350FL101FLORIDA                   PASCO                  2024010104000002023
4530000000TAMPA-ST. PETERSBURG-CLEARWATER, FL               203B S04000000498257063795007711250958350FL103FLORIDA                   PINELLAS               2024010104000002023
2946000000LAKELAND-WINTER HAVEN, FL                         203B S03150000498257063795007711250958350FL105FLORIDA                   POLK                   2024010103150002023
3726000000PALATKA, FL                                       203B S01170000498257063795007711250958350FL107FLORIDA                   PUTNAM                 2024010101170002023
2726000000JACKSONVILLE, FL                                  203B H04910000564650072285008737501085900FL109FLORIDA                   ST. JOHNS              2024010104910002023
3894000000PORT ST. LUCIE, FL                                203B H04750000546250069930008453001050500FL111FLORIDA                   ST. LUCIE              2024010104750002023
3786000000PENSACOLA-FERRY PASS-BRENT, FL                    203B S03250000498257063795007711250958350FL113FLORIDA                   SANTA ROSA             2024010103250002023
3584000000NORTH PORT-SARASOTA-BRADENTON, FL                 203B H04760000547400070075008470501052700FL115FLORIDA                   SARASOTA               2024010104760002023
3674000000ORLANDO-KISSIMMEE-SANFORD, FL                     203B S04260000498257063795007711250958350FL117FLORIDA                   SEMINOLE               2024010104260002023
4554000000THE VILLAGES, FL                                  203B S03700000498257063795007711250958350FL119FLORIDA                   SUMTER                 2024010103700002023
9999900000NON-METRO                                         203B S01130000498257063795007711250958350FL121FLORIDA                   SUWANNEE               2024010101160002008
9999900000NON-METRO                                         203B S01200000498257063795007711250958350FL123FLORIDA                   TAYLOR                 2024010101200002023
9999900000NON-METRO                                         203B S01310000498257063795007711250958350FL125FLORIDA                   UNION                  2024010101550002022
1966000000DELTONA-DAYTONA BEACH-ORMOND BEACH, FL            203B S03500000498257063795007711250958350FL127FLORIDA                   VOLUSIA                2024010103500002023
4522000000TALLAHASSEE, FL                                   203B S02500000498257063795007711250958350FL129FLORIDA                   WAKULLA                2024010102500002023
1888000000CRESTVIEW-FORT WALTON BEACH-DESTIN, FL            203B H05180000603750077290009342501161050FL131FLORIDA                   WALTON                 2023010105250002022
9999900000NON-METRO                                         203B S01190000498257063795007711250958350FL133FLORIDA                   WASHINGTON             2024010101250002022
9999900000NON-METRO                                         203B S00700000498257063795007711250958350GA001GEORGIA                   APPLING                2024010101230002009
2006000000DOUGLAS, GA                                       203B S00840000498257063795007711250958350GA003GEORGIA                   ATKINSON               2024010101250002008
9999900000NON-METRO                                         203B S00650000498257063795007711250958350GA005GEORGIA                   BACON                  2024010100810002008
9999900000NON-METRO                                         203B S00480000498257063795007711250958350GA007GEORGIA                   BAKER                  2024010101140002022
3330000000MILLEDGEVILLE, GA                                 203B S01500000498257063795007711250958350GA009GEORGIA                   BALDWIN                2024010101660002008
9999900000NON-METRO                                         203B S02300000498257063795007711250958350GA011GEORGIA                   BANKS                  2024010102340002022
1206000000ATLANTA-SANDY SPRINGS-ALPHARETTA, GA              203B H05650000649750083180010054501249550GA013GEORGIA                   BARROW                 2024010105650002023
1206000000ATLANTA-SANDY SPRINGS-ALPHARETTA, GA              203B H05650000649750083180010054501249550GA015GEORGIA                   BARTOW                 2024010105650002023
2234000000FITZGERALD, GA                                    203B S00620000498257063795007711250958350GA017GEORGIA                   BEN HILL               2024010100880002008
9999900000NON-METRO                                         203B S01170000498257063795007711250958350GA019GEORGIA                   BERRIEN                2024010101260002008
3142000000MACON-BIBB COUNTY, GA                             203B S02270000498257063795007711250958350GA021GEORGIA                   BIBB                   2024010102390002022
9999900000NON-METRO                                         203B S00910000498257063795007711250958350GA023GEORGIA                   BLECKLEY               2024010101210002008
1526000000BRUNSWICK, GA                                     203B S03000000498257063795007711250958350GA025GEORGIA                   BRANTLEY               2024010103000002023
4666000000VALDOSTA, GA                                      203B S02030000498257063795007711250958350GA027GEORGIA                   BROOKS                 2024010102030002023
4234000000SAVANNAH, GA                                      203B S03650000498257063795007711250958350GA029GEORGIA                   BRYAN                  2024010103650002023
4434000000STATESBORO, GA                                    203B S02350000498257063795007711250958350GA031GEORGIA                   BULLOCH                2024010102350002023
1226000000AUGUSTA-RICHMOND COUNTY, GA-SC                    203B S02970000498257063795007711250958350GA033GEORGIA                   BURKE                  2024010102970002023
1206000000ATLANTA-SANDY SPRINGS-ALPHARETTA, GA              203B H05650000649750083180010054501249550GA035GEORGIA                   BUTTS                  2024010105650002023
9999900000NON-METRO                                         203B S00360000498257063795007711250958350GA037GEORGIA                   CALHOUN                2024010100780002009
4122000000ST. MARYS, GA                                     203B S02500000498257063795007711250958350GA039GEORGIA                   CAMDEN                 2024010102500002023
9999900000NON-METRO                                         203B S00980000498257063795007711250958350GA043GEORGIA                   CANDLER                2024010101230002022
1206000000ATLANTA-SANDY SPRINGS-ALPHARETTA, GA              203B H05650000649750083180010054501249550GA045GEORGIA                   CARROLL                2024010105650002023
1686000000CHATTANOOGA, TN-GA                                203B S03100000498257063795007711250958350GA047GEORGIA                   CATOOSA                2024010103100002023
9999900000NON-METRO                                         203B S00800000498257063795007711250958350GA049GEORGIA                   CHARLTON               2024010101130002008
4234000000SAVANNAH, GA                                      203B S03650000498257063795007711250958350GA051GEORGIA                   CHATHAM                2024010103650002023
1798000000COLUMBUS, GA-AL                                   203B S02770000498257063795007711250958350GA053GEORGIA                   CHATTAHOOCHEE          2024010102770002023
4490000000SUMMERVILLE, GA                                   203B S01200000498257063795007711250958350GA055GEORGIA                   CHATTOOGA              2024010101240002009
1206000000ATLANTA-SANDY SPRINGS-ALPHARETTA, GA              203B H05650000649750083180010054501249550GA057GEORGIA                   CHEROKEE               2024010105650002023
1202000000ATHENS-CLARKE COUNTY, GA                          203B H04750000546250069930008453001050500GA059GEORGIA                   CLARKE                 2024010104750002023
9999900000NON-METRO                                         203B S00680000498257063795007711250958350GA061GEORGIA                   CLAY                   2024010101120002008
1206000000ATLANTA-SANDY SPRINGS-ALPHARETTA, GA              203B H05650000649750083180010054501249550GA063GEORGIA                   CLAYTON                2024010105650002023
9999900000NON-METRO                                         203B S00690000498257063795007711250958350GA065GEORGIA                   CLINCH                 2024010101220002008
1206000000ATLANTA-SANDY SPRINGS-ALPHARETTA, GA              203B H05650000649750083180010054501249550GA067GEORGIA                   COBB                   2024010105650002023
2006000000DOUGLAS, GA                                       203B S00840000498257063795007711250958350GA069GEORGIA                   COFFEE                 2024010101250002008
3422000000MOULTRIE, GA                                      203B S00860000498257063795007711250958350GA071GEORGIA                   COLQUITT               2024010101090002008
1226000000AUGUSTA-RICHMOND COUNTY, GA-SC                    203B S02970000498257063795007711250958350GA073GEORGIA                   COLUMBIA               2024010102970002023
9999900000NON-METRO                                         203B S00950000498257063795007711250958350GA075GEORGIA                   COOK                   2024010100950002023
1206000000ATLANTA-SANDY SPRINGS-ALPHARETTA, GA              203B H05650000649750083180010054501249550GA077GEORGIA                   COWETA                 2024010105650002023
3142000000MACON-BIBB COUNTY, GA                             203B S02270000498257063795007711250958350GA079GEORGIA                   CRAWFORD               2024010102390002022
1838000000CORDELE, GA                                       203B S01000000498257063795007711250958350GA081GEORGIA                   CRISP                  2024010101190002010
1686000000CHATTANOOGA, TN-GA                                203B S03100000498257063795007711250958350GA083GEORGIA                   DADE                   2024010103100002023
1206000000ATLANTA-SANDY SPRINGS-ALPHARETTA, GA              203B H05650000649750083180010054501249550GA085GEORGIA                   DAWSON                 2024010105650002023
1246000000BAINBRIDGE, GA                                    203B S01250000498257063795007711250958350GA087GEORGIA                   DECATUR                2024010101310002008
1206000000ATLANTA-SANDY SPRINGS-ALPHARETTA, GA              203B H05650000649750083180010054501249550GA089GEORGIA                   DEKALB                 2024010105650002023
9999900000NON-METRO                                         203B S00700000498257063795007711250958350GA091GEORGIA                   DODGE                  2024010100900002008
9999900000NON-METRO                                         203B S00840000498257063795007711250958350GA093GEORGIA                   DOOLY                  2024010100890002008
1050000000ALBANY, GA                                        203B S02240000498257063795007711250958350GA095GEORGIA                   DOUGHERTY              2024010102240002023
1206000000ATLANTA-SANDY SPRINGS-ALPHARETTA, GA              203B H05650000649750083180010054501249550GA097GEORGIA                   DOUGLAS                2024010105650002023
9999900000NON-METRO                                         203B S00630000498257063795007711250958350GA099GEORGIA                   EARLY                  2024010100990002008
4666000000VALDOSTA, GA                                      203B S02030000498257063795007711250958350GA101GEORGIA                   ECHOLS                 2024010102030002023
4234000000SAVANNAH, GA                                      203B S03650000498257063795007711250958350GA103GEORGIA                   EFFINGHAM              2024010103650002023
9999900000NON-METRO                                         203B S00700000498257063795007711250958350GA105GEORGIA                   ELBERT                 2024010101030002008
9999900000NON-METRO                                         203B S00790000498257063795007711250958350GA107GEORGIA                   EMANUEL                2024010100890002008
9999900000NON-METRO                                         203B S00780000498257063795007711250958350GA109GEORGIA                   EVANS                  2024010101220002008
9999900000NON-METRO                                         203B S03650000498257063795007711250958350GA111GEORGIA                   FANNIN                 2024010103650002022
1206000000ATLANTA-SANDY SPRINGS-ALPHARETTA, GA              203B H05650000649750083180010054501249550GA113GEORGIA                   FAYETTE                2024010105650002023
4066000000ROME, GA                                          203B S01700000498257063795007711250958350GA115GEORGIA                   FLOYD                  2024010101700002023
1206000000ATLANTA-SANDY SPRINGS-ALPHARETTA, GA              203B H05650000649750083180010054501249550GA117GEORGIA                   FORSYTH                2024010105650002023
9999900000NON-METRO                                         203B S01700000498257063795007711250958350GA119GEORGIA                   FRANKLIN               2024010101700002023
1206000000ATLANTA-SANDY SPRINGS-ALPHARETTA, GA              203B H05650000649750083180010054501249550GA121GEORGIA                   FULTON                 2024010105650002023
9999900000NON-METRO                                         203B S01590000498257063795007711250958350GA123GEORGIA                   GILMER                 2024010101760002008
9999900000NON-METRO                                         203B S00830000498257063795007711250958350GA125GEORGIA                   GLASCOCK               2024010100950002021
1526000000BRUNSWICK, GA                                     203B S03000000498257063795007711250958350GA127GEORGIA                   GLYNN                  2024010103000002023
1566000000CALHOUN, GA                                       203B S02200000498257063795007711250958350GA129GEORGIA                   GORDON                 2024010102200002023
9999900000NON-METRO                                         203B S01140000498257063795007711250958350GA131GEORGIA                   GRADY                  2024010101220002008
9999900000NON-METRO                                         203B H04600000529000067720008186001017300GA133GEORGIA                   GREENE                 2024010104600002023
1206000000ATLANTA-SANDY SPRINGS-ALPHARETTA, GA              203B H05650000649750083180010054501249550GA135GEORGIA                   GWINNETT               2024010105650002023
1846000000CORNELIA, GA                                      203B S02250000498257063795007711250958350GA137GEORGIA                   HABERSHAM              2024010102250002023
2358000000GAINESVILLE, GA                                   203B S03500000498257063795007711250958350GA139GEORGIA                   HALL                   2024010103500002023
3330000000MILLEDGEVILLE, GA                                 203B S01500000498257063795007711250958350GA141GEORGIA                   HANCOCK                2024010101660002008
1206000000ATLANTA-SANDY SPRINGS-ALPHARETTA, GA              203B H05650000649750083180010054501249550GA143GEORGIA                   HARALSON               2024010105650002023
1798000000COLUMBUS, GA-AL                                   203B S02770000498257063795007711250958350GA145GEORGIA                   HARRIS                 2024010102770002023
9999900000NON-METRO                                         203B S02050000498257063795007711250958350GA147GEORGIA                   HART                   2024010102050002023
1206000000ATLANTA-SANDY SPRINGS-ALPHARETTA, GA              203B H05650000649750083180010054501249550GA149GEORGIA                   HEARD                  2024010105650002023
1206000000ATLANTA-SANDY SPRINGS-ALPHARETTA, GA              203B H05650000649750083180010054501249550GA151GEORGIA                   HENRY                  2024010105650002023
4758000000WARNER ROBINS, GA                                 203B S02150000498257063795007711250958350GA153GEORGIA                   HOUSTON                2024010102150002023
9999900000NON-METRO                                         203B S00590000498257063795007711250958350GA155GEORGIA                   IRWIN                  2024010101010002008
2760000000JEFFERSON, GA                                     203B S03700000498257063795007711250958350GA157GEORGIA                   JACKSON                2024010103700002023
1206000000ATLANTA-SANDY SPRINGS-ALPHARETTA, GA              203B H05650000649750083180010054501249550GA159GEORGIA                   JASPER                 2024010105650002023
9999900000NON-METRO                                         203B S00640000498257063795007711250958350GA161GEORGIA                   JEFF DAVIS             2024010101100002008
9999900000NON-METRO                                         203B S00580000498257063795007711250958350GA163GEORGIA                   JEFFERSON              2024010100850002009
9999900000NON-METRO                                         203B S00630000498257063795007711250958350GA165GEORGIA                   JENKINS                2024010100710002008
2014000000DUBLIN, GA                                        203B S01050000498257063795007711250958350GA167GEORGIA                   JOHNSON                2024010101340002008
3142000000MACON-BIBB COUNTY, GA                             203B S02270000498257063795007711250958350GA169GEORGIA                   JONES                  2024010102390002022
1206000000ATLANTA-SANDY SPRINGS-ALPHARETTA, GA              203B H05650000649750083180010054501249550GA171GEORGIA                   LAMAR                  2024010105650002023
4666000000VALDOSTA, GA                                      203B S02030000498257063795007711250958350GA173GEORGIA                   LANIER                 2024010102030002023
2014000000DUBLIN, GA                                        203B S01050000498257063795007711250958350GA175GEORGIA                   LAURENS                2024010101340002008
1050000000ALBANY, GA                                        203B S02240000498257063795007711250958350GA177GEORGIA                   LEE                    2024010102240002023
2598000000HINESVILLE, GA                                    203B S02520000498257063795007711250958350GA179GEORGIA                   LIBERTY                2024010102520002023
1226000000AUGUSTA-RICHMOND COUNTY, GA-SC                    203B S02970000498257063795007711250958350GA181GEORGIA                   LINCOLN                2024010102970002023
2598000000HINESVILLE, GA                                    203B S02520000498257063795007711250958350GA183GEORGIA                   LONG                   2024010102520002023
4666000000VALDOSTA, GA                                      203B S02030000498257063795007711250958350GA185GEORGIA                   LOWNDES                2024010102030002023
9999900000NON-METRO                                         203B S02800000498257063795007711250958350GA187GEORGIA                   LUMPKIN                2024010102800002023
1226000000AUGUSTA-RICHMOND COUNTY, GA-SC                    203B S02970000498257063795007711250958350GA189GEORGIA                   MCDUFFIE               2024010102970002023
1526000000BRUNSWICK, GA                                     203B S03000000498257063795007711250958350GA191GEORGIA                   MCINTOSH               2024010103000002023
9999900000NON-METRO                                         203B S00550000498257063795007711250958350GA193GEORGIA                   MACON                  2024010101000002008
1202000000ATHENS-CLARKE COUNTY, GA                          203B H04750000546250069930008453001050500GA195GEORGIA                   MADISON                2024010104750002023
1798000000COLUMBUS, GA-AL                                   203B S02770000498257063795007711250958350GA197GEORGIA                   MARION                 2024010102770002023
1206000000ATLANTA-SANDY SPRINGS-ALPHARETTA, GA              203B H05650000649750083180010054501249550GA199GEORGIA                   MERIWETHER             2024010105650002023
9999900000NON-METRO                                         203B S00850000498257063795007711250958350GA201GEORGIA                   MILLER                 2024010101180002008
9999900000NON-METRO                                         203B S00850000498257063795007711250958350GA205GEORGIA                   MITCHELL               2024010100980002008
3142000000MACON-BIBB COUNTY, GA                             203B S02270000498257063795007711250958350GA207GEORGIA                   MONROE                 2024010102390002022
4708000000VIDALIA, GA                                       203B S01080000498257063795007711250958350GA209GEORGIA                   MONTGOMERY             2024010101170002008
1206000000ATLANTA-SANDY SPRINGS-ALPHARETTA, GA              203B H05650000649750083180010054501249550GA211GEORGIA                   MORGAN                 2024010105650002023
1914000000DALTON, GA                                        203B S01970000498257063795007711250958350GA213GEORGIA                   MURRAY                 2024010101970002023
1798000000COLUMBUS, GA-AL                                   203B S02770000498257063795007711250958350GA215GEORGIA                   MUSCOGEE               2024010102770002023
1206000000ATLANTA-SANDY SPRINGS-ALPHARETTA, GA              203B H05650000649750083180010054501249550GA217GEORGIA                   NEWTON                 2024010105650002023
1202000000ATHENS-CLARKE COUNTY, GA                          203B H04750000546250069930008453001050500GA219GEORGIA                   OCONEE                 2024010104750002023
1202000000ATHENS-CLARKE COUNTY, GA                          203B H04750000546250069930008453001050500GA221GEORGIA                   OGLETHORPE             2024010104750002023
1206000000ATLANTA-SANDY SPRINGS-ALPHARETTA, GA              203B H05650000649750083180010054501249550GA223GEORGIA                   PAULDING               2024010105650002023
4758000000WARNER ROBINS, GA                                 203B S02150000498257063795007711250958350GA225GEORGIA                   PEACH                  2024010102150002023
1206000000ATLANTA-SANDY SPRINGS-ALPHARETTA, GA              203B H05650000649750083180010054501249550GA227GEORGIA                   PICKENS                2024010105650002023
4818000000WAYCROSS, GA                                      203B S01090000498257063795007711250958350GA229GEORGIA                   PIERCE                 2024010101390002022
1206000000ATLANTA-SANDY SPRINGS-ALPHARETTA, GA              203B H05650000649750083180010054501249550GA231GEORGIA                   PIKE                   2024010105650002023
1634000000CEDARTOWN, GA                                     203B S01790000498257063795007711250958350GA233GEORGIA                   POLK                   2024010101790002023
9999900000NON-METRO                                         203B S01300000498257063795007711250958350GA235GEORGIA                   PULASKI                2024010101300002023
9999900000NON-METRO                                         203B S02650000498257063795007711250958350GA237GEORGIA                   PUTNAM                 2024010102650002023
2164000000EUFAULA, AL-GA                                    203B S01280000498257063795007711250958350GA239GEORGIA                   QUITMAN                2024010101280002023
9999900000NON-METRO                                         203B S02380000498257063795007711250958350GA241GEORGIA                   RABUN                  2024010102380002023
9999900000NON-METRO                                         203B S00540000498257063795007711250958350GA243GEORGIA                   RANDOLPH               2024010100970002008
1226000000AUGUSTA-RICHMOND COUNTY, GA-SC                    203B S02970000498257063795007711250958350GA245GEORGIA                   RICHMOND               2024010102970002023
1206000000ATLANTA-SANDY SPRINGS-ALPHARETTA, GA              203B H05650000649750083180010054501249550GA247GEORGIA                   ROCKDALE               2024010105650002023
1114000000AMERICUS, GA                                      203B S01300000498257063795007711250958350GA249GEORGIA                   SCHLEY                 2024010101300002023
9999900000NON-METRO                                         203B S00720000498257063795007711250958350GA251GEORGIA                   SCREVEN                2024010100980002008
9999900000NON-METRO                                         203B S00700000498257063795007711250958350GA253GEORGIA                   SEMINOLE               2024010101090002008
1206000000ATLANTA-SANDY SPRINGS-ALPHARETTA, GA              203B H05650000649750083180010054501249550GA255GEORGIA                   SPALDING               2024010105650002023
4574000000TOCCOA, GA                                        203B S01550000498257063795007711250958350GA257GEORGIA                   STEPHENS               2024010101550002023
1798000000COLUMBUS, GA-AL                                   203B S02770000498257063795007711250958350GA259GEORGIA                   STEWART                2024010102770002023
1114000000AMERICUS, GA                                      203B S01300000498257063795007711250958350GA261GEORGIA                   SUMTER                 2024010101300002023
1798000000COLUMBUS, GA-AL                                   203B S02770000498257063795007711250958350GA263GEORGIA                   TALBOT                 2024010102770002023
9999900000NON-METRO                                         203B S00800000498257063795007711250958350GA265GEORGIA                   TALIAFERRO             2024010101100002008
9999900000NON-METRO                                         203B S01100000498257063795007711250958350GA267GEORGIA                   TATTNALL               2024010101190002008
9999900000NON-METRO                                         203B S00490000498257063795007711250958350GA269GEORGIA                   TAYLOR                 2024010101100002008
9999900000NON-METRO                                         203B S00460000498257063795007711250958350GA271GEORGIA                   TELFAIR                2024010100830002008
1050000000ALBANY, GA                                        203B S02240000498257063795007711250958350GA273GEORGIA                   TERRELL                2024010102240002023
4562000000THOMASVILLE, GA                                   203B S01760000498257063795007711250958350GA275GEORGIA                   THOMAS                 2024010101800002022
4570000000TIFTON, GA                                        203B S01500000498257063795007711250958350GA277GEORGIA                   TIFT                   2024010101690002022
4708000000VIDALIA, GA                                       203B S01080000498257063795007711250958350GA279GEORGIA                   TOOMBS                 2024010101170002008
9999900000NON-METRO                                         203B S02000000498257063795007711250958350GA281GEORGIA                   TOWNS                  2024010102110002008
2014000000DUBLIN, GA                                        203B S01050000498257063795007711250958350GA283GEORGIA                   TREUTLEN               2024010101340002008
2930000000LAGRANGE, GA-AL                                   203B S01820000498257063795007711250958350GA285GEORGIA                   TROUP                  2024010101820002023
9999900000NON-METRO                                         203B S00560000498257063795007711250958350GA287GEORGIA                   TURNER                 2024010100850002008
3142000000MACON-BIBB COUNTY, GA                             203B S02270000498257063795007711250958350GA289GEORGIA                   TWIGGS                 2024010102390002022
9999900000NON-METRO                                         203B S01750000498257063795007711250958350GA291GEORGIA                   UNION                  2024010101750002023
4558000000THOMASTON, GA                                     203B S01300000498257063795007711250958350GA293GEORGIA                   UPSON                  2024010101300002022
1686000000CHATTANOOGA, TN-GA                                203B S03100000498257063795007711250958350GA295GEORGIA                   WALKER                 2024010103100002023
1206000000ATLANTA-SANDY SPRINGS-ALPHARETTA, GA              203B H05650000649750083180010054501249550GA297GEORGIA                   WALTON                 2024010105650002023
4818000000WAYCROSS, GA                                      203B S01090000498257063795007711250958350GA299GEORGIA                   WARE                   2024010101390002022
9999900000NON-METRO                                         203B S00550000498257063795007711250958350GA301GEORGIA                   WARREN                 2024010101430002008
9999900000NON-METRO                                         203B S00800000498257063795007711250958350GA303GEORGIA                   WASHINGTON             2024010101060002008
2770000000JESUP, GA                                         203B S01250000498257063795007711250958350GA305GEORGIA                   WAYNE                  2024010101410002008
9999900000NON-METRO                                         203B S00890000498257063795007711250958350GA307GEORGIA                   WEBSTER                2024010100890002023
9999900000NON-METRO                                         203B S00610000498257063795007711250958350GA309GEORGIA                   WHEELER                2024010100860002008
9999900000NON-METRO                                         203B S02300000498257063795007711250958350GA311GEORGIA                   WHITE                  2024010102300002023
1914000000DALTON, GA                                        203B S01970000498257063795007711250958350GA313GEORGIA                   WHITFIELD              2024010101970002023
9999900000NON-METRO                                         203B S00350000498257063795007711250958350GA315GEORGIA                   WILCOX                 2024010100980002008
9999900000NON-METRO                                         203B S00950000498257063795007711250958350GA317GEORGIA                   WILKES                 2024010101010002008
9999900000NON-METRO                                         203B S00500000498257063795007711250958350GA319GEORGIA                   WILKINSON              2024010101190002008
1050000000ALBANY, GA                                        203B S02240000498257063795007711250958350GA321GEORGIA                   WORTH                  2024010102240002023
9999900000NON-METRO                                         203B H04000000563500072140008720001083650GU010GUAM                      GUAM                   2014010104900002008
2590000000HILO, HI                                          203B H04500000517500066250008008000995200HI001HAWAII                    HAWAII                 2023010104500002022
4652000000URBAN HONOLULU, HI                                203B H06780000779700099815012065501499450HI003HAWAII                    HONOLULU               2024010106780002023
9999900000NON-METRO                                         203B H08700001000500128085015482501924100HI005HAWAII                    KALAWAO                2024010108700002023
2818000000KAPAA, HI                                         203B H08950001029250131765015927001979350HI007HAWAII                    KAUAI                  2024010108950002023
2798000000KAHULUI-WAILUKU-LAHAINA, HI                       203B H08700001000500128085015482501924100HI009HAWAII                    MAUI                   2024010108700002023
9999900000NON-METRO                                         203B S01190000498257063795007711250958350IA001IOWA                      ADAIR                  2024010101230002021
9999900000NON-METRO                                         203B S00840000498257063795007711250958350IA003IOWA                      ADAMS                  2024010101030002021
9999900000NON-METRO                                         203B S01180000498257063795007711250958350IA005IOWA                      ALLAMAKEE              2024010101180002023
9999900000NON-METRO                                         203B S00880000498257063795007711250958350IA007IOWA                      APPANOOSE              2024010100880002023
9999900000NON-METRO                                         203B S00840000498257063795007711250958350IA009IOWA                      AUDUBON                2024010100930002021
1630000000CEDAR RAPIDS, IA                                  203B S01870000498257063795007711250958350IA011IOWA                      BENTON                 2024010101870002023
4794000000WATERLOO-CEDAR FALLS, IA                          203B S01660000498257063795007711250958350IA013IOWA                      BLACK HAWK             2024010101750002022
1118000000AMES, IA                                          203B S02450000498257063795007711250958350IA015IOWA                      BOONE                  2024010102450002023
4794000000WATERLOO-CEDAR FALLS, IA                          203B S01660000498257063795007711250958350IA017IOWA                      BREMER                 2024010101750002022
9999900000NON-METRO                                         203B S01450000498257063795007711250958350IA019IOWA                      BUCHANAN               2024010101500002022
4474000000STORM LAKE, IA                                    203B S01500000498257063795007711250958350IA021IOWA                      BUENA VISTA            2024010101500002023
9999900000NON-METRO                                         203B S01270000498257063795007711250958350IA023IOWA                      BUTLER                 2024010101300002022
9999900000NON-METRO                                         203B S00750000498257063795007711250958350IA025IOWA                      CALHOUN                2024010100770002022
